:100000000C942A000C94CD040C9447000C944700E7
:100010000C9447000C9447000C9447000C9437054F
:100020000C9447000C9447000C94BF050C944700B7
:100030000C9447000C9401050C9447000C94470065
:100040000C9447000C9447000C9447000C94470014
:100050000C94470011241FBECFE5D8E0DEBFCDBF12
:1000600010E0A0E6B0E0ECE5FCE002C005900D92E7
:10007000A439B107D9F721E0A4E9B0E001C01D928D
:10008000AC37B207E1F70E9449000C942C060C949F
:1000900000000E94BC020E94B30284EB91E00E9427
:1000A000AE028FE690E00E94EE0180E690E00E94B2
:1000B000EE010E949A0480E090E00895FC018181A5
:1000C000813C71F580E00E949D0281E00E949D02CA
:1000D00082E00E949D0283E00E949D0280E00E94D7
:1000E0008B0281E00E948B0282E00E948B0283E0FF
:1000F0000E948B0260E080E20E94530261E080E295
:100100000E94530262E080E20E94530263E080E2B8
:100110000E94530261E970E080E690E00E94DE01F7
:100120000895CF93DF93EC0180E80E94CA02898191
:100130000E94CA028981823C19F4109265000BC0AA
:10014000833049F481E08093300161EC70E080E617
:1001500090E00E94DE01DF91CF910895882349F05D
:1001600080FD09C090E086959F5F80FFFCCF892FBE
:1001700008958FEF089580E008950E94AE008450A6
:1001800008950F931F93CF93DF93EC0180EA0E94B1
:10019000CA0289810E94CA028981873CD1F48B817D
:1001A0008130C9F58A81982F907FA9F10E94BD0006
:1001B00090916500891719F0809366000AC0682F36
:1001C00080E10E94530288E893E10E9488058093B1
:1001D00067008981883C71F481EA0E94CA0200E6C6
:1001E00010E0F80185810E94CA02F801658180E271
:1001F0000E9453028981823071F48B819A81891324
:100200000AC0C0E6D0E082958F708D8388E893E1C4
:100210000E9488058F83DF91CF911F910F910895E0
:100220001F93CF93DF93D82F162FC82FC295CF706F
:100230008C2F0E9488028D2F6C2F0E942006911116
:1002400008C0C11106C0212F4D2F62EC81E00E9431
:10025000CE02DF91CF911F910895262F482F62E0A3
:1002600082E00E94CE020895FC018181813C29F444
:1002700080E191E00E9484020895823C79F480E05C
:100280000E9488026FE671E08FE690E00E94DE0136
:1002900020E040E063E080E20E94CE020895CF9328
:1002A000DF93FC0121812230B9F4628183816813DC
:1002B00013C062956F70CFE6D0E06E8380E10E943C
:1002C000530220E04E8167E080E20E94CE026FE69A
:1002D00071E0CE010E94DE01DF91CF9108950F936E
:1002E0001F93CF93DF93EC018981843089F46B8174
:1002F0000FE610E0F80165838A81868380E20E9420
:100300005302F8012581468166E080E20E94CE0218
:100310008981883079F46A810FE610E0F8016583FD
:1003200080E10E94530220E0F801468167E080E20C
:100330000E94CE028981813091F48A81843078F4E0
:10034000CFE6D0E08E836FE471E0CE010E94DE0143
:100350008E816DE271E08295807F0E947002DF9154
:10036000CF911F910F910895CF93DF93FC0190815E
:10037000913049F4C8E8D0E088E40E94CA0289912B
:100380008111FBCF08C0923031F420E0418161E05F
:1003900080E20E94CE02DF91CF910895F89480917F
:1003A0002F018F5F80932F01089580912F0181503D
:1003B00080932F01811101C0789408950F931F93AA
:1003C000CF93DF93EC018B010E94CE011C830B8342
:1003D000DF91CF911F910F910C94D501E0917600A0
:1003E000F0917700A6E7B0E020E0E637F20729F0C9
:1003F000DF010190F081E02DF7CF8D939C93DC011C
:10040000ED93FC9308950F931F93CF93DF930E9476
:10041000CE019091AD008091AE00981759F084E024
:10042000989FE0011124C155DF4F9F5F9F7190930A
:10043000AD0002C0C0E0D0E00E94D5012097C9F015
:100440000091760010917700F0E006371F0789F0E1
:10045000D80112969C9112978881892331F01396C6
:10046000ED91FC911497CE010995F801008111815D
:10047000EBCFDF91CF911F910F91089512BE8BE0CA
:1004800083BF8DE78CBF89B7826089BF80E891E028
:100490009BBD8ABD1DBC1CBC1FBC8DE08EBD89B739
:1004A000806189BF0895CF93DF93D82FC62F0E9414
:1004B000CE016C2F70E08D2F8073660F771FFB01CC
:1004C000EC58FE4F9081982311F494E09183FB0146
:1004D000EC58FE4F81608083DF91CF910C94D50161
:1004E00080937C0010927F00709381006093800065
:1004F00090917B00981710F481E003C0891718F4DD
:100500008FEF80937F000895BC0180E00C9470020F
:1005100080933F010895843078F421E030E0A90110
:1005200002C0440F551F8A95E2F7CA018095909149
:1005300039018923809339010895843070F424E0CF
:10054000280F81E090E001C0880F2A95EAF7809596
:100550009091390189238093390108959093360150
:1005600080933501089510BC8CE089B986E880BD80
:1005700088E98AB9789408958FEF87BB84BB8ABBDA
:1005800011BA0E94B30285B7836085BF8BB78064C0
:100590008BBF08958CB95D9BFECF08950F931F9379
:1005A000CF93DF93C82F062FD42F122F0E94CE0196
:1005B0008091AE00E82FF0E0AF014F5F5F4F4F71C9
:1005C00055272091AD0030E04217530771F48FEFAB
:1005D0000E94CA0280E00E94CA028FEF0E94CA02F3
:1005E0008EED0E94CA028DEAF9CFEE0FFF1FEE0FCB
:1005F000FF1FE155FF4F01831383D283C0838F5FB9
:100600008F718093AE00DF91CF911F910F910C9469
:10061000D501DF92EF92FF920F931F93CF93DF9359
:10062000C4E7D1E000E010E0EE24E394F12C8981EE
:10063000811124C0488140FF23C04E7F4883202F72
:1006400065EC80E10E94CE0288814091310184FFF7
:100650000AC09701002E01C0220F0A94EAF7242B4A
:10066000209331010DC0C701002E01C0880F0A94EC
:10067000EAF7809584238093310102C081508983F9
:100680000F5F1F4F22960430110589F6DF91CF913D
:100690001F910F91FF90EF90DF900895DB01823062
:1006A000B1F58C91982F9072282F2076D9F121E006
:1006B000382F307184FF20E0992311F094E001C0BD
:1006C00090E08F70890F41E050E002C0440F551F49
:1006D0008A95E2F78091330190913401BA016095D7
:1006E00070958623972390933401809333013323AD
:1006F00051F08091330190913401842B952B90938C
:1007000034018093330167EC81E00C94CE02833096
:1007100049F4E0913501F0913601309719F0642FDA
:10072000CD01099408959091AC00911105C080937A
:10073000AC001092AB0008954091AB00411104C091
:1007400082508093AB0015C0E091AA00E41798F4A2
:1007500021E02E0F2093AA00F0E0E456FF4F8083A3
:10076000421309C06CE970E0892F0E944E03109279
:10077000AC001092AA000895CF9380919A009091B6
:100780009B00019690939B0080939A008370992719
:10079000892B21F5809199008F5F80939900837058
:1007A000A82FB0E0AA0FBB1FAC58BE4F1196EC911A
:1007B00011979C9194FF03C094E09E1BE92FF0E0F9
:1007C000EE57FF4F21E030E0A90102C0440F551F52
:1007D0008A95E2F7CA019081892B85BB80919800A8
:1007E0008F5F8093980020913901222301F183705B
:1007F000622F70E040E150E0082E02C0440F551F08
:100800000A94E2F746235723452B11F080933C01CD
:10081000082E02C0759567950A94E2F760FD8093F3
:100820003A01822F807F19F090913D0101C091E043
:100830002F7019F020913B0101C021E08091380117
:10084000811104C030917B003F7301C03FE3809170
:100850004001811103C080913F0101C087E0809376
:100860003E018091370160E4869FA001112460E879
:10087000969FC0011124842B832B88BB80913C015F
:1008800098E0899FA001112490913A0130E2939F52
:10089000C0011124842B30913E01382B40E8249F65
:1008A000C0011124832B8BBB909152018091530185
:1008B0009817B9F00E94CE01E091520181E08E0FAD
:1008C00080935201F0E0EC5AFE4FC08180915201BA
:1008D0008F71809352010E94D5018C2F0E94930347
:1008E000E3CF80919600909197009C012F5F3F4F3E
:1008F00030939700209396008F3F9F40C9F48091DA
:1009000030018823A9F084E00E94CA0286E00E9498
:10091000CA0285EA0E94CA028AE50E94CA02809140
:1009200032010E94CA0280913101CF910C94CA0217
:10093000CF9108958AEC0E94CA0210923801109259
:100940003D011092400110923B011092370110922C
:10095000750180E280937401109277018093760193
:10096000109279018093780110927B0180937A0133
:100970008FE180937B0080937C000E943E0220E008
:1009800040E061EC81E00E94CE028EEF0E94CA023C
:100990000E9403020E94BC03FBCF1F920F920FB66E
:1009A0000F9211242F933F934F935F936F937F93F5
:1009B0008F939F93AF93BF93EF93FF9380913301F6
:1009C0009091340191609093340180933301409170
:1009D00033015091340120E069EC80E10E94CE02A5
:1009E000FF91EF91BF91AF919F918F917F916F9107
:1009F0005F914F913F912F910F900FBE0F901F90DD
:100A000018951F920F920FB60F9211242F933F93B8
:100A10008F939F93EF93FF935F9B1EC08091530131
:100A20002091520190E001968F71992730E0821752
:100A3000930789F08CB1E091530191E09E0F909360
:100A40005301F0E0EC5AFE4F8083809153018F7187
:100A500080935301E1CF5798FF91EF919F918F9130
:100A60003F912F910F900FBE0F901F9018951F92DE
:100A70000F920FB60F9211242F933F934F935F93D2
:100A80006F937F938F939F93AF93BF93EF93FF9356
:100A9000809195008F5F80939500909194009F5F67
:100AA0009093940060917D000E942006911114C0E3
:100AB00090917B0060917C00961761F080917F009F
:100AC000890F80937B00E0918000F0918100309746
:100AD00009F0099510929500809194006CE00E94B5
:100AE0002006911104C0109294000E940903FF9106
:100AF000EF91BF91AF919F918F917F916F915F9196
:100B00004F913F912F910F900FBE0F901F9018950E
:100B1000FF920F931F93CF93DF93F09051012F2DEE
:100B200030E0C0E0D0E0A9010C2E02C055954795F9
:100B30000A94E2F740FD18C08C010E94CE0121E02A
:100B400030E00C2E01C0220F0A94EAF72F292093DF
:100B50005101FE01EE0FFF1FEF5BFE4F118300837B
:100B60000E94D5018C2F05C02196C830D105D9F639
:100B70008FEFDF91CF911F910F91FF9008951F92FA
:100B80000F920FB60F921124CF92DF92FF920F9324
:100B90001F932F933F934F935F936F937F938F9305
:100BA0009F93AF93BF93CF93DF93EF93FF9301E4B2
:100BB00011E0C0E0D0E0CC24C394D12CF0905101DE
:100BC0008F2D90E00C2E02C0959587950A94E2F740
:100BD00080FF18C0F8018081918101979183808303
:100BE000892B81F420E040E068EC81E00E94CE0295
:100BF000C6010C2E01C0880F0A94EAF78095F822EE
:100C0000F092510121960E5F1F4FC830D105B1F609
:100C1000FF91EF91DF91CF91BF91AF919F918F9114
:100C20007F916F915F914F913F912F911F910F9104
:100C3000FF90DF90CF900F900FBE0F901F901895F0
:100C4000991B79E004C0991F961708F0961B881F1E
:0C0C50007A95C9F780950895F894FFCFBD
:100C5C000000FF5E0000000000000000000000002B
:100C6C0000FF3401020076000000001F000400FFAA
:100C7C00000000103070F048656C6C6F2D576F726F
:040C8C006C640A008A
:00000001FF
