S01600004C69667453696D756C6174696F6E2E737265635A
S11300000C942A000C94A8050C9447000C94470007
S11300100C9447000C9447000C9447000C9412066F
S11300200C9447000C9447000C94B9060C944700B8
S11300300C9447000C94DC050C9447000C94470086
S11300400C9447000C9447000C9447000C94470010
S11300500C94470011241FBECFE5D8E0DEBFCDBF0E
S113006010E0A0E6B0E0E0E5FEE002C005900D92ED
S1130070AA39B107D9F721E0AAE9B0E001C01D927D
S1130080A238B207E1F70E9449000C9426070C94A9
S113009000000E9497030E948E038EE692E00E9465
S11300A0890388E690E00E94A80280E690E00E941E
S11300B0A8020E94FF0181E0809336010E94750529
S11300C080E090E00895FC018181813CF1F480E0BE
S11300D00E94780381E00E94780382E00E94780302
S11300E083E00E94780380E00E94660381E00E941E
S11300F0660382E00E94660383E00E94660366E86A
S113010070E080E690E00E9498020895CF93DF9318
S1130110EC0182E00E94A50389810E94A5038981E4
S1130120823C71F41092650063EA70E080E690E02E
S11301300E94980220E040E063E080E20E94A9036C
S1130140DF91CF910895CF93DF93EC0183E00E9478
S1130150A50389810E94A5038981833011F0883C1D
S113016069F481E00E94A50389810E94A50320917E
S1130170650040E06AE080E20E94A90389818B3037
S113018079F44A81E0E6F0E04683258161E080E28B
S11301900E94A90363ED70E080E690E00E9498025B
S11301A0DF91CF910895CF93DF93FC012181273014
S11301B099F44281C0E6D0E04D8320E068E080E21B
S11301C00E94A90388E893E10E9463068F8362E09A
S11301D071E0CE010E949802DF91CF9108958823A7
S11301E049F080FD09C090E086959F5F80FFFCCFB9
S11301F0892F08958FEF089580E008950E94EF00FD
S113020084500895CF93DF93EC018981873CC9F42E
S11302108B818130A9F58A81982F907F89F10E9482
S1130220FE009091650089132BC020E0482F68E000
S113023080E20E94A90388E893E10E946306809308
S113024067008981883CE1F4C0E6D0E08F810E9498
S11302509A0681EA0E94A5038D810E94A50320E0ED
S11302604D8164E080E20E94A90320E040E063E065
S113027080E20E94A90363EA70E0CE010E94980222
S1130280DF91CF9108951F93CF93DF93D82F162F2B
S1130290C82FC295CF708C2F0E9442038D2F6C2FD4
S11302A00E941A07911108C0C11106C0212F4D2FB9
S11302B062EC81E00E94A903DF91CF911F91089520
S11302C0262F482F62E082E00E94A9030895CF936D
S11302D0DF93EC018981813CA9F460E080E20E9413
S11302E00D0361E080E20E940D0362E080E20E945F
S11302F00D0363E080E20E940D0383E491E00E9419
S11303003E0317C0823CA9F489E10E94A5038981B8
S11303100E94A50380E00E9442036DEB71E088E631
S113032090E00E94980220E040E063E080E20E94B6
S1130330A903DF91CF910895CF93DF93FC0121812D
S11303402230C1F462818381681314C062956F7096
S1130350C8E6D0E06E8380E10E940D034E814D8398
S113036020E067E080E20E94A9036DEB71E0CE011A
S11303700E949802DF91CF9108950F931F93CF931A
S1130380DF93EC0181E10E94A50389810E94A5030A
S11303908A810E94A50389818130D1F48A818430C5
S11303A048F582E10E94A5038A8108E610E0F8017D
S11303B086838B8185836CE971E0C8010E94980271
S11303C0F801868160E671E08295807F0E942A03AD
S11303D08981883031F46A8160936D0080E10E94E4
S11303E00D038981843031F46A8160936D0080E269
S11303F00E940D03DF91CF911F910F9108958FE615
S113040090E00E94A8020895AFE6B0E01A96EC913D
S11304101A9791E09E0F93701B962C91921741F0BE
S1130420F0E0E159FF4F86839093790081E00895CD
S113043080E008951F93CF93DF93EC0180E80E943E
S1130440A50389810E94A5038981873C49F58B8195
S1130450813009F03FC081E80E94A5038A81982F6A
S1130460907F71F00E94FE00182F0E944503812F97
S11304700E94040220E0412F6BE080E20E94A90365
S11304801A81812F8F7061F0812F0E945603812F72
S11304900E94040220E0412F6BE080E20E94A90345
S11304A089818A30B9F482E80E94A503EFE6F0E07E
S11304B092858385981741F02B8145E750E06BE0E6
S11304C080E20E94A90306C088EE93E00E946306BE
S11304D080937B00DF91CF911F910895CF93DF9399
S11304E0FC019081913049F4CEE8D0E088E40E9488
S11304F0A50389918111FBCF08C0923031F420E02B
S1130500418161E080E20E94A903DF91CF910895C7
S1130510F894809135018F5F80933501089580911F
S11305203501815080933501811101C0789408957B
S11305300F931F93CF93DF93EC018B010E948802EA
S11305401C830B83DF91CF911F910F910C948F0229
S1130550E0917C00F0917D00ACE7B0E020E0EC3766
S1130560F20729F0DF010190F081E02DF7CF8D93A0
S11305709C93DC01ED93FC9308950F931F93CF9309
S1130580DF930E9488029091B3008091B400981781
S113059059F084E0989FE0011124CB54DF4F9F5F12
S11305A09F719093B30002C0C0E0D0E00E948F021C
S11305B02097C9F000917C0010917D00F0E00C3789
S11305C01F0789F0D80112969C911297888189237C
S11305D031F01396ED91FC911497CE010995F80131
S11305E000811181EBCFDF91CF911F910F9108957D
S11305F012BE8BE083BF8DE78CBF89B7826089BF51
S113060080E891E09BBD8ABD1DBC1CBC1FBC8DE075
S11306108EBD89B7806189BF0895CF93DF93D82FAA
S1130620C62F0E9488026C2F70E08D2F8073660F96
S1130630771FFB01E658FE4F9081982311F494E054
S11306409183FB01E658FE4F81608083DF91CF9157
S11306500C948F028093820010928500709387001F
S11306606093860090918100981710F481E003C094
S1130670891718F48FEF809385000895BC0180E0FA
S11306800C942A03809345010895843070F421E08A
S113069030E0A90102C0440F551F8A95E2F7CA0150
S11306A090913F01892B80933F010895843068F431
S11306B024E0280F81E090E001C0880F2A95EAF732
S11306C090913F01892B80933F010895843078F401
S11306D021E030E0A90102C0440F551F8A95E2F7DA
S11306E0CA01809590913F01892380933F01089529
S11306F0843070F424E0280F81E090E001C0880F7A
S11307002A95EAF7809590913F01892380933F01D0
S1130710089590933C0180933B01089510BC8CE0B4
S113072089B986E880BD88E98AB9789408958FEFFD
S113073087BB84BB8ABB11BA0E948E0385B78360D2
S113074085BF8BB780648BBF08958CB95D9BFECF4A
S113075008950F931F93CF93DF93C82F062FD42FA1
S1130760122F0E9488028091B400E82FF0E0AF01BC
S11307704F5F5F4F4F7155272091B30030E0421710
S1130780530771F48FEF0E94A50380E00E94A50334
S11307908FEF0E94A5038EED0E94A5038DEAF9CF89
S11307A0EE0FFF1FEE0FFF1FEB54FF4F0183138368
S11307B0D283C0838F5F8F718093B400DF91CF9118
S11307C01F910F910C948F02DF92EF92FF920F937F
S11307D01F93CF93DF93CAE7D1E000E010E0EE244B
S11307E0E394F12C8981811124C0488140FF23C006
S11307F04E7F4883202F65EC80E10E94A903888105
S11308004091370184FF0AC09701002E01C0220FD6
S11308100A94EAF7242B209337010DC0C701002E58
S113082001C0880F0A94EAF78095842380933701E6
S113083002C0815089830F5F1F4F22960430110537
S113084089F6DF91CF911F910F91FF90EF90DF9088
S11308500895DB018230B1F58C91982F9072282F86
S11308602076D9F121E0382F307184FF20E09923DC
S113087011F094E001C090E08F70890F41E050E0E6
S113088002C0440F551F8A95E2F780913901909177
S11308903A01BA01609570958623972390933A01A3
S11308A080933901332351F08091390190913A01B9
S11308B0842B952B90933A018093390167EC81E066
S11308C00C94A903833049F4E0913B01F0913C017D
S11308D0309719F0642FCD01099408959091B200D6
S11308E0911105C08093B2001092B1000895409117
S11308F0B100411104C082508093B10015C0E09151
S1130900B000E41798F421E02E0F2093B000F0E03B
S1130910EE55FF4F8083421309C062EA70E0892FCD
S11309200E9429041092B2001092B0000895CF934F
S11309308091A0009091A10001969093A1008093D2
S1130940A00083709927892B21F580919F008F5FE8
S113095080939F008370A82FB0E0AA0FBB1FA658F6
S1130960BE4F1196EC9111979C9194FF03C094E0B3
S11309709E1BE92FF0E0E857FF4F21E030E0A9018A
S113098002C0440F551F8A95E2F7CA019081892B52
S113099085BB80919E008F5F80939E0020913F01D4
S11309A0222301F18370622F70E040E150E0082EB1
S11309B002C0440F551F0A94E2F746235723452BE0
S11309C011F080934201082E02C0759567950A9430
S11309D0E2F760FD80934001822F807F19F09091AF
S11309E0430101C091E02F7019F02091410101C031
S11309F021E080913E01811104C0309181003F7358
S1130A0001C03FE380914601811103C080914501FB
S1130A1001C087E08093440180913D0160E4869F9A
S1130A20A001112460E8969FC0011124842B832B1C
S1130A3088BB8091420198E0899FA0011124909184
S1130A40400130E2939FC0011124842B3091440172
S1130A50382B40E8249FC0011124832B8BBB909139
S1130A605801809159019817B9F00E948802E091C9
S1130A70580181E08E0F80935801F0E0E65AFE4F52
S1130A80C081809158018F71809358010E948F0218
S1130A908C2F0E946E04E3CF80919C0090919D0066
S1130AA09C012F5F3F4F30939D0020939C008F3F0C
S1130AB09F40C9F4809136018823A9F084E00E9404
S1130AC0A50386E00E94A50385EA0E94A5038AE5A2
S1130AD00E94A503809138010E94A50380913701EB
S1130AE0CF910C94A503CF9108958AEC0E94A5039D
S1130AF010923E011092430110924601109241015E
S1130B0010923D0110927B0180E280937A01109251
S1130B107D0180937C0110927F0180937E0110926D
S1130B208101809380018FE1809381008093820012
S1130B300E94F80220E040E061EC81E00E94A903F9
S1130B408EEF0E94A5030E94BD020E949704FBCF72
S1130B501F920F920FB60F9211242F933F934F932E
S1130B605F936F937F938F939F93AF93BF93EF9311
S1130B70FF938091390190913A01916090933A01E9
S1130B80809339014091390150913A0120E069EC98
S1130B9080E10E94A903FF91EF91BF91AF919F91D2
S1130BA08F917F916F915F914F913F912F910F9012
S1130BB00FBE0F901F9018951F920F920FB60F92B1
S1130BC011242F933F938F939F93EF93FF935F9BF6
S1130BD01EC0809159012091580190E001968F71B7
S1130BE0992730E08217930789F08CB1E09159017D
S1130BF091E09E0F90935901F0E0E65AFE4F8083F6
S1130C00809159018F7180935901E1CF5798FF91D9
S1130C10EF919F918F913F912F910F900FBE0F9065
S1130C201F9018951F920F920FB60F9211242F93B5
S1130C303F934F935F936F937F938F939F93AF9360
S1130C40BF93EF93FF9380919B008F5F80939B00F2
S1130C5090919A009F5F90939A00609183000E9404
S1130C601A07911114C09091810060918200961727
S1130C7061F080918500890F80938100E091860066
S1130C80F0918700309709F0099510929B008091AC
S1130C909A006CE00E941A07911104C010929A0005
S1130CA00E94E403FF91EF91BF91AF919F918F91C7
S1130CB07F916F915F914F913F912F910F900FBE54
S1130CC00F901F901895FF920F931F93CF93DF936C
S1130CD0F09057012F2D30E0C0E0D0E0A9010C2E98
S1130CE002C0559547950A94E2F740FD18C08C015F
S1130CF00E94880221E030E00C2E01C0220F0A94E9
S1130D00EAF72F2920935701FE01EE0FFF1FE95B3D
S1130D10FE4F118300830E948F028C2F05C0219601
S1130D20C830D105D9F68FEFDF91CF911F910F9184
S1130D30FF900895CF938830D0F4C82F0E94880282
S1130D40EC2FF0E081E090E001C0880FCA95EAF74B
S1130D50809590915701892380935701EE0FFF1FCF
S1130D60E95BFE4F11821082CF910C948F02CF91D8
S1130D7008951F920F920FB60F921124CF92DF9213
S1130D80FF920F931F932F933F934F935F936F9310
S1130D907F938F939F93AF93BF93CF93DF93EF93FF
S1130DA0FF9307E411E0C0E0D0E0CC24C394D12C3D
S1130DB0F09057018F2D90E00C2E02C095958795E9
S1130DC00A94E2F780FF18C0F801808191810197AD
S1130DD091838083892B81F420E040E068EC81E0FA
S1130DE00E94A903C6010C2E01C0880F0A94EAF7D9
S1130DF08095F822F092570121960E5F1F4FC8305C
S1130E00D105B1F6FF91EF91DF91CF91BF91AF91F1
S1130E109F918F917F916F915F914F913F912F910E
S1130E201F910F91FF90DF90CF900F900FBE0F9006
S1130E301F901895991B79E004C0991F961708F024
S1130E40961B881F7A95C9F780950895F894FFCF6B
S1130E500000FF63000000000000FF6701020000C3
S1130E6000FF1A0200000000000000007C000000E7
S1130E70001F000400FF000000103070F048656C93
S10D0E806C6F2D576F726C640A004A
S9030000FC
